:080000004DC0FECFFDCFFCCF87
:10000800FBCFFACFF9CFF8CFF7CFF6CFF5CFF4CFB4
:10001800F3CFF2CF6EC0F0CFEFCFEECFEDCF010030
:10002800000080C041686F6A2C6A73656D205A4170
:100038004E444152004D6F62696C6E6920726F6266
:100048006F7400496E696369616C697A6163652ED2
:100058002E2E0053706F757374696D2070726F6700
:1000680072616D0043656B616D206E612053544170
:100078005254210050726F6772616D2073707573EE
:1000880074656E2100000400630126000200670108
:100098002A000000F894EE27ECBBF1E0FBBFEBBFB1
:1000A800E5BFF8E1F1BDE1BD8DE0A2E0BB27ED932E
:1000B8008A95E9F780E094E0A0E6ED930197E9F7E7
:1000C800EEE8F0E085919591009761F0A591B591E2
:1000D80005901590BF01F00105900D920197E1F789
:1000E800FB01F0CFEFE5EDBFE4E0EEBFC0E6D1E005
:1000F800C3C00A921A92FA926A937A938A939A934D
:10010800AA93BA93EA93FA93EFB7EA93E5B1F0E0CA
:1001180068D22F015A924A9221D210D1E991EFBFA9
:10012800F991E991B991A9919991899179916991F7
:10013800F990199009901895E0E1EA93E3D113D268
:1001480012D27FD1ECE2F0E011D2BBD112D20BD2A5
:1001580014D2EDE3F0E014D2E0EDF7E013D27ED153
:10016800EBE4F0E00DD2FFD108D203D2EBE5F0E0EA
:1001780007D2E8EEF3E006D208959A9902C004D2B5
:100188000895E0E0F0E0089555D205E010E000247D
:100198000016010668F4C498C3988BE48A95F1F7B1
:1001A800C49AC39A8BE48A95F1F701501040EFCFB7
:1001B8009C9902C0E9D141C09B9903C0E2E0F0E0FC
:1001C8003CC0E0E0F0E039C0D8DF309719F0E3E058
:1001D800F0E00895D9DFE130A0E0FA0719F4D4D1AE
:1001E800089507C0E230A0E0FA0719F4E2E0F0E071
:1001F8000895CDD180E594E10197F1F7A89880EFB3
:100208009AE00197F1F7C6D1DFCF14D209E110E0E7
:1002180000240016010688F4BAD180EA9FE001970D
:10022800F1F7A99880E89CE00197F1F7A898E2E136
:10023800F0E0A8D101501040EBCFFFD10895A8817C
:10024800B981F4D140F4A3D1E2E0F0E09BD1A898C1
:10025800A1D1A4D1F4CF0EC0A881B981E7D150F4BF
:1002680096D192D18FD1A998A898E3E1F0E08AD1EC
:1002780095D1F2CF22960895EFEFE7BBE0E0E8BB17
:10028800E3E0E4BBECEFE5BBEFEFE1BBE0E0E2BBB2
:10029800E5BFE7EEE7B9EBECE6B978944DDFDED0E1
:1002A800ECE6F0E06DD169DF309761F07DD156D191
:1002B8007FD154D17DD1E9E5F0E062D1E4E6F0E008
:1002C80061D1F1CF50D14FD1BCD0ECE7F0E058D19B
:1002D8007BDFE130A0E0FA0739F46ED1E5E0F0E029
:1002E80045D1BADF69D120C0E230A0E0FA0739F47D
:1002F80063D1E5E0F0E03AD1A2DF5ED115C0E3308A
:10030800A0E0FA0789F458D180DF56D143D0E03114
:10031800A0E4FA072CF4E4E1F0E028D190DF04C06F
:10032800E4E1F0E023D198DF3FD118D141D116D1D3
:100338003FD1E9E5F0E024D1CBCFFFCFA991B99126
:10034800E991F99130962AF4E095F09531966DE2AD
:100358006D93E89480E197E20DD088EE93E00AD09F
:1003680084E6992707D08AE005D06E2F10D066273B
:100378006C9308956627E817F90720F06395E81B42
:10038800F90BC9F7662311F416F008956894605DB7
:100398006D930895E0916301F091640160916501A6
:1003A80070916601ADE6BEE486EC91E41FD1EE598A
:1003B800F8486F4F7F4FE0936301F09364016093B7
:1003C800650170936601E62FF72FFF770895FFE028
:1003D800FA95F1F70895A1B3AF70A1BB919A9098DF
:1003E800F6DF929AF4DFA0B39298F1DF929AEFDFEA
:1003F8009298A7FDF5CF0895A07FAB2BA2BB929A48
:10040800E6DF9298E4DF08959198A1B3A76FA1BBA6
:10041800B2B3BF70A881F0DFA881A295EDDF919AF1
:1004280021960895929AD3DFE0B39298D0DFE07FC7
:100438000895CDDFF7DFAE2FF5DF9198E295EA2B2F
:100448000895C9DFE881F0E0E959FE4FE081A9810C
:10045800EA0FB5D07980688022960895BCDFE2E083
:10046800AED0B9DFECE0ABD0B6DFE1E0A8D0E0E099
:100478006E2E7E2E0895EF93FF93A8816894AA307C
:1004880021F0E8947394971428F463946CD06A92DA
:10049800D8DF2EF0A0DF909AA881AA93B5DFFF914C
:1004A800EF91219608951A93A981BA81ED91A983B4
:1004B800BA831E2FE03019F01A93DDDFF5CF1881CB
:1004C8000FC01A93E981FA813196E983FA8331974B
:1004D800E4911E2FE03019F01A93CDDFF3CF188185
:1004E80023960895AA27BB271197F1F708959198A5
:1004F800A1B3A76FA1BBB2B3BF70A8817DDF919AEA
:1005080021960895929890989880E881E058E09311
:100518006901E881E054E0936A0153D052D051D088
:10052800E1DFE0E2EA93E3DFDDDFE8E248D0DADFAB
:10053800E4E045D0D7DFE5E842D0D4DFA1B3AF701F
:10054800A1BB919A76DFE53011F0E0E005C043DF0A
:10055800E6E035D083DFE1E021960895E0E6F1E0BA
:10056800FA93EA930895E0E0EA930895FA93EA93F8
:100578000895E4EFF1E0FADF28C0E1E0EA9361CF03
:10058800F5DF9FCFF3DF21C0E1E0F0E00895A89AFE
:10059800A99A0895A998E2E1F0E0F4CFE881F981F9
:1005A8003197E883F9830895369AECE0EA93E5CF2A
:1005B8007ADFEDE0EA93E1CFE8ECF0E0E3CFEA930D
:1005C80023CF90DFE0E3EA9392CFE991F991309657
:1005D80039F080EA9FE00197F1F7A8953197C9F7BC
:1005E8000895EE0FFF1FEE0FFF1F08957A9F702DDD
:1005F8006B9F700DF89F700DE99F700D6A9F602DBD
:10060800710DFB9F600D711DE89F600D711D88279E
:10061800FA9FF02D610D781FEB9FF00D611D781F7B
:10062800EA9FE02DF10D681F781F089500240A162F
:100638000B0608951A930A9308950991199108953C
:00000001FF
